:020000040000FA
:0400000007EF00F016
:100008000F8209ED00F019EF02F00600F0A00FEFE3
:1000180000F011EF00F072EF00F0F096F292F0901D
:100028000D0E096EFC0EE82EFED7092EFCD7014AEC
:10003800022A01C009F002C00AF00A340A32093261
:100048000A340A3209320950BB6E01C009F0030EA6
:100058000916093ABA500918CF0B0918BA6E0F0ECB
:10006800BB6439EF00F03BEF00F014EF00F0820EB4
:10007800096EDE0EE82EFED7092EFCD70D0E096E8E
:10008800FC0EE82EFED7092EFCD70106D8A00206E2
:1000980001C009F002C00AF00A340A3209320A34EF
:1000A8000A3209320950BB6E01C009F0030E091665
:1000B800093ABA500918CF0B0918BA6E060EBB6078
:1000C80068EF00F06AEF00F042EF00F0820E096E70
:1000D800DE0EE82EFED7092EFCD7F086F2A277EFC7
:1000E80000F079EF00F0ECEF00F0F292F298F00EE9
:1000F800BD1695908380CF0EBA16BA86BA84BA9286
:10010800BA900B0EBB6EBAA68CEF00F08EEF00F023
:10011800EBEF00F00D0E096EFC0EE82EFED7092E4F
:10012800FCD7014A022A01C009F002C00AF00A34C9
:100138000A3209320A340A3209320950BB6E01C048
:1001480009F0030E0916093ABA500918CF0B091815
:10015800BA6E0F0EBB64B3EF00F0B5EF00F08EEF90
:1001680000F0820E096EDE0EE82EFED7092EFCD7AF
:100178000D0E096EFC0EE82EFED7092EFCD70106DF
:10018800D8A0020601C009F002C00AF00A340A32F7
:1001980009320A340A3209320950BB6E01C009F02B
:1001A800030E0916093ABA500918CF0B0918BA6E86
:1001B800060EBB60E2EF00F0E4EF00F0BCEF00F0E9
:1001C800820E096EDE0EE82EFED7092EFCD7F288C5
:1001D8009EA0F1EF00F0F3EF00F090EF01F0BD50BA
:1001E8000F0B0009D8B4FBEF00F0FDEF00F090EF23
:1001F80001F0F2B202EF01F004EF01F090EF01F02C
:100208009E90F29203040410D8A40DEF01F00FEFB2
:1002180001F04CEF01F007500810D8A416EF01F0D8
:1002280018EF01F04CEF01F006BE24EF01F0065084
:1002380009E11E0E055CD8A024EF01F026EF01F0BD
:1002480030EF01F0000E046E000E036E000E086E13
:10025800010E076ED3EF01F0020E0526000E0622EE
:1002680005C009F006C00AF00A340A3209320A3415
:100278000A3209320950BE6E05C009F0030E09168C
:10028800093ABD500918CF0B0918BD6E90EF01F05F
:1002980003500410D8A453EF01F055EF01F090EF8C
:1002A80001F007040810D8A45CEF01F05EEF01F03C
:1002B80090EF01F006BE6CEF01F0065007E1020E68
:1002C800055CD8B06AEF01F06CEF01F076EF01F051
:1002D800000E046E010E036E000E086E000E076E0F
:1002E800D3EF01F0FE0E0526FF0E062205C009F029
:1002F80006C00AF00A340A3209320A340A320932CC
:100308000950BE6E05C009F0030E0916093ABD5022
:100318000918CF0B0918BD6E9EA095EF01F097EF55
:1003280001F0D3EF01F0BD500F0B096E020E09600A
:10033800A0EF01F0A2EF01F0D3EF01F0F298F292F2
:100348009E9083800D500E10D8A4ADEF01F0AFEF52
:1003580001F0BCEF01F083901A0E096EF80EE82E3A
:10036800FED7092EFCD700D0000E0E6E010E0D6EC2
:100378000D040E10D8A4C3EF01F0C5EF01F0D2EFC1
:1003880001F083801A0E096EF80EE82EFED7092EAA
:10039800FCD700D0000E0E6E000E0D6EF2880F9284
:1003A800110094949492070ECA6E000ECC6ED08EF3
:1003B800F28E1E0ECB6E000EBE6ECF0EBD16BD8623
:1003C800BD84BD92BD90CD8ECD80CD92C30ECF6E33
:1003D800500ECE6E9D809F809E90000E046E010E82
:1003E800036E000E086E000E076E000E066E000EFD
:1003F800056E0B0EBB6EBB500B6E0C6AD8900B369D
:100408000C36D8900B360C360BC001F00CC002F03D
:10041800CF0EBA16BA86BA84BA92BA90F288F19C0C
:10042800F086F19A16EF02F01200680EF66E040ECE
:10043800F76E000EF86E0900F5CF0DF00900F5CF44
:100448000EF0086A076A066A056A0F900F920001A3
:100458002EEF02F0D5EC01F030EF02F007EF00F0DC
:02046800010091
:020000040020DA
:08000000FFFFFFFFFFFFFFFF00
:020000040030CA
:0E000000FF081F1EFF8181FF0FC00FE00F40A1
:00000001FF
