:020000040000FA
:10000000806A896A9288956A8C6AF00E8C6EF80E06
:10001000156E470E146E0000000000000000142E44
:100020000BEF00F0152E09EF00F0F00E8C6E80B88B
:10003000FCD78C46F80E156E470E146E00000000BB
:1000400000000000142E1EEF00F0152E1CEF00F033
:10005000F00E8C6E80B8FCD78C468C46F80E156E70
:10006000470E146E0000000000000000142E32EF56
:1000700000F0152E30EF00F0F00E8C6E80B8FCD73B
:100080008C468C468C46F80E156E470E146E00009A
:10009000000000000000142E47EF00F0152E45EF81
:1000A00000F0F00E8C6E80B8FCD78C468C468C46E7
:1000B0008C46F80E156E470E146E0000000000000E
:1000C0000000142E5DEF00F0152E5BEF00F0F00E37
:0800D0008C6E80B8FCD799D7B3
:0200D800000026
:020000040030CA
:0100010008F6
:010003001EDE
:010006008178
:00000001FF
