:020000040000FA
:04000000B0EF3FF02E
:107F60000001D6EF3FF001C08AFF02C08BFF03C0C3
:107F70008CFF080E896E8A368B368CCFE8FF8B5EBD
:107F8000894E0DD08BBE04D08A368B368A80F5D7C9
:107F90008CCFE8FF8B268A368B368A90EED78A36CE
:107FA0008B368ACF01F08BCF02F01200000E026EEA
:107FB000010E016E000E046E1E0E036EB3EC3FF058
:107FC00001C001F002C002F0000E026E020E016E4E
:107FD000000E046E010E036EB3EC3FF00150036E11
:107FE000000E026E020E016E000E046E010E036E94
:107FF000B3EC3FF00150046EFCEF3FF000EF00F0F7
:020000040020DA
:08000000FFFFFFFFFFFFFFFF00
:020000040030CA
:0E000000FF071F1FFF8385FF0FC00FE00F409B
:00000001FF
