:020000040000FA
:0400000007EF00F016
:10000800038209ED00F0A9EF00F00600F2A20FEF5D
:1000180000F011EF00F08CEF00F0F292F29822EF6E
:1000280000F0010E016EBD38030B026E015002266E
:10003800023ABD500218CF0B0218BD6EBD38030B33
:10004800030AD8A42AEF00F02CEF00F015EF00F017
:10005800120EBE18D8A433EF00F035EF00F041EFD0
:1000680000F0BD38030B030AD8A43DEF00F03FEFC2
:1000780000F041EF00F083EF00F00D0E016EFC0E72
:10008800E82EFED7012EFCD7CF0EBD16BE2A22EFD2
:1000980000F0010E016EBD38030B026E0150025EC6
:1000A800023ABD500218CF0B0218BD6EBD38030BC3
:1000B8000009D8A462EF00F064EF00F04DEF00F003
:1000C800040EBE18D8A46BEF00F06DEF00F079EFC6
:1000D80000F0BD38030B0009D8A475EF00F077EFE6
:1000E80000F079EF00F08BEF00F00D0E016EFC0EC2
:1000F800E82EFED7012EFCD7300EBD12BE06040E28
:10010800BE6089EF00F08BEF00F05AEF00F0F28844
:100118000392110093809494D39CD38AD3889B0E26
:10012800CB6E070ECA6ED08EF28EBD50F00B0C0946
:10013800BD6ECF0EBD16040EBE6E000ECC6EF288DC
:10014800F19CA5EF00F007EF00F003900392000187
:040158008EEF00F036
:020000040020DA
:08000000FFFFFFFFFFFFFFFF00
:020000040030CA
:0E000000FF081F1EFF8181FF0FC00FE00F40A1
:00000001FF
