:020000040000FA
:0400000007EF00F016
:10000800098209ED00F015EF01F006009EAC0FEF34
:1000180000F011EF00F095EF00F0C2929E9CC450E2
:10002800086E076AC3500724036E000E0820046E8A
:10003800800E035C030E0458D8A025EF00F027EFCC
:1000480000F02DEF00F0850E026EED0E016E90EFC0
:1000580000F0030E045CD8A034EF00F036EF00F097
:100068003CEF00F09C0E026E400E016E90EF00F027
:10007800800E035C020E0458D8A045EF00F047EF4D
:1000880000F04DEF00F0AF0E026EC80E016E90EF5B
:1000980000F0020E045CD8A054EF00F056EF00F018
:1000A8005CEF00F0C20E026EF60E016E90EF00F0EB
:1000B800800E035C010E0458D8A065EF00F067EFCE
:1000C80000F06DEF00F0C90E026E900E016E90EF19
:1000D80000F00404D8A073EF00F075EF00F07BEF98
:1000E80000F0D00E026E340E016E90EF00F0045056
:1000F80009E1800E035CD8A084EF00F086EF00F0E1
:100108008CEF00F0D70E026EA00E016E90EF00F09B
:10011800E10E026EAC0E016E030EE82EFED700F063
:10012800C2829EA09AEF00F09CEF00F0E2EF00F090
:100138009E9005500610D8A4A4EF00F0A6EF00F09A
:10014800BFEF00F0100EBE60ACEF00F0AEEF00F0B5
:10015800BFEF00F0BE28BE6E100EBE18D8A4B7EFD1
:1001680000F0B9EF00F0DEEF00F0000E066E010EB1
:10017800056EDEEF00F005040610D8A4C6EF00F007
:10018800C8EF00F0DEEF00F0BE50D8B4CEEF00F0BC
:10019800D0EF00F0DEEF00F0BE04BE6EBE50D8A473
:1001A800D8EF00F0DAEF00F0DEEF00F0000E066E98
:1001B800000E056E01C0CEFF02C0CFFF09921100EC
:1001C8009494D39CD38AD388070ECA6E000ECC6E43
:1001D800D08EF28E100ECB6E000EBE6EBD9ABD98FC
:1001E800BD86BD84BD92BD90CD8ECD80CD92300EA2
:1001F800CD12850ECF6EED0ECE6E9D809F809E90A7
:100208009280959095929594010EC26E0E0EC16ED5
:10021800940EC06ED08EF28E9E9C9D8C9F8CC28256
:100228001200066A056A046A036A026A016A09908A
:100238000992000120EF01F0E4EC00F022EF01F058
:0402480007EF00F0CC
:020000040020DA
:08000000FFFFFFFFFFFFFFFF00
:020000040030CA
:0E000000FF081F1EFF8181FF0FC00FE00F40A1
:00000001FF
